:100000000C94FC0A0C94290B0C94290B0C94290BCE
:100010000C94290B0C94290B0C94290B0C94290B90
:100020000C94290B0C94290B0C94290B0C94290B80
:100030000C94FC4B0C94290B0C94290B0C94290B5D
:100040000C94290B0C9468290C94290B0C94290B03
:100050000C94290B0C94290B0C94290B0C94290B50
:100060000C94290B0C94D34B0C94A94B0C94290B96
:100070000C94290B0C94290B0C94290B0C94290B30
:100080000C94290B0C94290B0C94290B0C94290B20
:100090000C94290B0C94290B0C94290B0C94290B10
:1000A0000C94290B0C94290B0C94290B0C94290B00
:1000B0000C94290B0C94290B0C94290B0C94290BF0
:1000C0000C94290B0C94290B0C94290B0C94290BE0
:1000D0000C94290B0C94290B0C94290B0C94290BD0
:1000E0000C94290B0C9482360C94103F0C94B91884
:1000F0000C94E22E0C9410230C94C7310C944E35C2
:100100000C942C480C949B470C940B370C94873D13
:100110000C9451340C9496410C94C8200C94803863
:100120000C94EE360C94ED3C0C94A32C0C949C2077
:100130000C94D6370C94C33D0C940E1D0C94781877
:100140000C94AE370C94BC180C94713D0C94923DF9
:100150000C946A310C94581E0C94F0310C94C63AED
:100160000C944A190C947F370C94FD230C94A548E9
:100170000C94EF250C941B1F0C9433280C94171D22
:100180000C94911D0C9422240C942F230C94B934BC
:100190000C94C7330C9466190C94CC240C94F53948
:1001A0000C94BA470C94C6230C94D22E0C944D395F
:1001B0000C94C33F0C94B8220C94662B0C949D4B6A
:1001C0000C949D220C9493400C942C390C94E23D99
:1001D0000C943F360C94CB3A0C94C02A0C94D6283D
:1001E0000C94773F0C9460220C9402190C94F52225
:1001F0000C947C3D0C94112C0C948C440C949649DA
:100200000C9487200C945D410C94A8260C94BD3668
:100210000C94AD180C949B2C0C945C440C9494445A
:100220000C943B210C94C31C0C940B180C94384276
:100230000C94F03F0C94FA200C94C3480C94AF3EFD
:100240000C9432450C943A1E0C94A8380C94064138
:100250000C94013E0C94F2340C944A240C94AD4658
:100260000C943B2C0C94FB350C9499240C940B406F
:100270000C94621F0C944E250C947E210C9417381C
:100280000C9489210C94A21E0C94AE280C944E233D
:100290000C94671C0C94DC170C944A330C94162BAA
:1002A0000C94482B0C94AB350C9442380C94A34816
:1002B0000C94613C0C9475460C94D9400C94914676
:1002C0000C9486280C94263A0C947F1F0C94C71D1E
:1002D0000C941E180C94EF1C0C9420260C94A5264C
:1002E0000C94611F0C9485310C948B230C944B4817
:1002F0000C940E220C94FD410C94F92C0C9478452E
:100300000C94C7400401010100010404040400002E
:1003100000040401010101010404010104000004BE
:1003200004040404000004040404040000000004A5
:1003300004000000000400000000000000040000B1
:100340000000000400020000040004000004070490
:10035000040000040404000002020000000204077C
:100360000004000404000004000202040404040465
:100370000000040004040404040404000400020354
:100380000400040400040004000004000400000051
:1003900000000000000001000201028B03BC1802F3
:1003A000000001000000AD1803000001000000B9CA
:1003B00018040000010000000219050000010000FF
:1003C000000B18060001000198141E180700000118
:1003D000000000DC1708000100018A0378180900FA
:1003E0000001000000611F0A000201019314872030
:1003F0000B000301038703621F0C00020102850347
:100400009C200D000200028B03C63A0E000200027F
:100410007F14C71D0F000300038703A21E100002F4
:10042000000285033A1E11000500058003581E12C4
:10043000000200027F147F3713000100018A03D6F7
:100440003714000200028503AE3715000200027F58
:1004500014EE3616000400047C03613C170005000E
:10046000057703CB3A18000100018A039340190075
:100470000800086F0306411A000300036C035D4186
:100480001B000200027F14FD411C000200028503D4
:10049000D9401D00040004771496411E000100019C
:1004A0008A03C7401F000800086403784520000243
:1004B00000028503324521000400038114F92C2237
:1004C000000300028414D22E23000300028414E2ED
:1004D0002E24000400047B14944425000100018AAA
:1004E000038C44260003000361035C4427000400DE
:1004F000035E03332828000300028414A826290081
:100500000400047B14A32C2A000100018A039B2C05
:100510002B000300035B030E1D2C00030003861455
:10052000171D2D000600065503911D2E0002000226
:100530007F14B9342F0005000550034E35300004F8
:1005400000048D14C31C31000200027F14EF1C3222
:10055000000400034D03513433000500054803F245
:100560003434000100018A03662B3500040003685F
:1005700014112C360005000543033B2C3700040002
:10058000047B14162B38000300036103482B390049
:1005900003000284149B473A0003000284142C4891
:1005A0003B000600063D03BA473C000300028414EA
:1005B00075463D00030002841491463E0008000881
:1005C0003503AD463F000600063D034B484000059D
:1005D00000053003F03141000600062A0385314250
:1005E000000300036C03C73143000100018A03AF1D
:1005F0003E44000200028503C33F45000200027F23
:1006000014E23D46000100018A03013E470002005A
:10061000028503773F48000400042603103F490089
:100620000100018A034E254A000200028503923D23
:100630004B000200027F14C33D4C000100018A03FD
:10064000CC244D000200028503EF254E000200027B
:100650007F142F234F000100018A03B822500002AB
:10066000000285034A2451000200027F14F5225241
:10067000000400042203992453000100018A03604E
:1006800022540002000285038B2355000200027FE2
:10069000149D225600030003741422245700010005
:1006A000018A038921580002000285034E23590064
:1006B0000100018A03C6235A000600061C030E220D
:1006C0005B000300036C03FD235C000200027F1447
:1006D00010235D0003000284144D395E0004000401
:1006E0007714263A5F000300036C03F539600003BA
:1006F00000036C03173861000400041803423862D9
:10070000000700071103803863000200027F14A86D
:100710003864000100018A03AE2865000700070A5B
:1007200003D6286600060006040396496700020007
:10073000027F144A19680000010000009D4B690007
:1007400000000500000078DA9D5A796FDB3816FF4B
:100750002A5A03C51E48BA966CCB7616FD2387DB52
:1007600066DAB49938D90E76B1101489B685E81ACC
:1007700051CAB1837EF77D072FC94E073B05028B17
:10078000E423F9F8F88EDF7BEC6FA3B8AE4727A31C
:100790004F7956D7A2191D8DEEBB2C4FA347D1C858
:1007A000AC2A250C6D93E4C42BB267917AF759D922
:1007B000B5592E4FBCBF7CF872E79DA9E65FBDE03E
:1007C0006D10BE0DC67E38F683192C9254451197D4
:1007D000294CFF6D14A7D20F827114B76D9CECA247
:1007E000BC8AD32811791ED54D752FBC2A4BDFBD8D
:1007F00049BC4177C4DDA393C5EC6814E77995C47F
:100800002D754A2FA9BAB2E531E4B66D81CD284ED7
:100810001EF44A767C1A3A0469AA09EA4AD24F566B
:10082000BE7BD37975077B76354F7056FCB513CDFB
:100830008B5913187840EA46C8366AB3E44172AB64
:100840006DE25216591BE95DBDAC04D9A9FDE72044
:10085000895CC44D24775D9B564FE5E82440E194C4
:100860009B6C1B29B9E82D649DA9437B69DCC651AB
:1008700023E2F4256226E1A8A133EF399F4C67FB00
:10088000F34627E1D25295715E6DA3AC34A7562B87
:100890004D2C07EAA89A829B91233FBB1C758AA620
:1008A000BF584F7633CB619A6DB336CEA3AA6B0790
:1008B000131EE3BC137444B189BBBC8D4C47113F7C
:1008C0004769D7C42D681DF1E9CFCD7A0234A9ADAF
:1008D000EADE5A496FF3C06EBE4BA7D3F9C288B5A2
:1008E000914A869ED01FE9D47CCDCC5768BEE6E6FF
:1008F0004BE4F18BB96C90AE95DCEE79EE3FEB2DCD
:10090000B6710652DBC56529723A1B9C5BAF219319
:10091000FCC15EA25D200B124FDFDAD4E94E8A6083
:10092000BC9C2EF4D240662E77BE3064799AF8A132
:100930001F1CA25A0643AAE8296B77A008EDFD3ECA
:10094000BD87DDCC1FCEF5EDDC4C06E993D50C1947
:10095000F53FA3F6A5A67B0342387B56EB0EE0D30A
:10096000E1E0B0ADCB4A469B2C077D326C1F0733CC
:1009700033ABA8BB65301B1F9481A52A4555835313
:10098000CA071A46B623B3FF022FBB0E1C561BA183
:100990006639162B0574C185D97B9D4DCDA2F553C3
:1009A00071406B9317B062BB86D2D95D37D462E8D1
:1009B000D953E3A9E5D81E5BAF8FD45224482C95B8
:1009C00018ACC981610FF9403FD7668F22DA65DB29
:1009D0001D4D982C5C7AB0FA6D2E0E78143366AFEC
:1009E0006939EBCDD41EEAD06435141572FBEECD17
:1009F000DFC0A94F26BDB9A860A8F389343A3DB13C
:100A0000D62BDBF9D2BAB9441E300D4F8246E9CF5E
:100A1000973289FAA6E725451A0DAD71E648AA1561
:100A200018BC0CEBD0543AEDA559A33FD93113B102
:100A3000A5EA72299C45037BB076279AA202BF578C
:100A40001F94A83B6C851A5A3FD416491737469510
:100A50009AE768CF697AADE944456DB342F0D1AC0D
:100A60001DB60DCAC38A757C344AC57D07EA5F414D
:100A7000D85EEA16ACB225D5E7FBF10D194611AFE9
:100A80006A52D1E07E10041B76AE8126786AB25697
:100A9000EC51A08E3321B0220AD16C4599BC44E8B8
:100AA000858109E8628F1CEDAA42ECC5481917B58B
:100AB0006B2FAA6D22643F8602EB360AF0718D8C93
:100AC0009B6CBB052701879015BB2874137A738A2A
:100AD000D0C053DC0A23A0006C799341EC030F10C3
:100AE000B10CBDA449D87F1F8DB660FCC42708593E
:100AF000B588063C0B37BB1A6F01CCF668A4020917
:100B00001868094EAC484D9CC46F9673E80FC8F046
:100B10000A3C278A2B32B80E8A187F1403C136E8A4
:100B200005F932953E09B2450FFBA25CA8D8BE6418
:100B300042F471E0A85D0F0A4DF27F202CFCC57BCA
:100B40001692957EEADB59F2C99D08266ACC328D51
:100B50001D05768CA6B75438E5A594560D053105CC
:100B60004164A928DB6C03D06AB3811DC9BC0DE2C6
:100B7000004E74D482B1EE15056B77B0E1AECA5366
:100B80006AFC58653CD134554F8596C0C450D2EEAE
:100B900036FFE782AF6143D423708A2496E360BEB8
:100BA000BFE721F53D0E16FB84782F0033B7D60D35
:100BB000C51BD1BEB041490C66EFDE64C3CEF81947
:100BC0003BDBB8518627A9A90EB36DE28298A48FAA
:100BD000087CA7B6CE0C790043D1D195D4DAB037D2
:100BE0000B9C91AE4E2DEB0CAA779D73D933F0136D
:100BF0007CC601D2EDC909B47B3AA023997436961C
:100C00002C9C857AD077B050B818D00D170AE7869B
:100C100060888EFFA0F32AACF352C1DFB6E8CA00A9
:100C20001B89E4C1C1D4135FF33080D48683BA82B8
:100C30009B1FEEEFC4BD995EA0074287421DF7A837
:100C40008692982FF5F010710ED699CF87847B4B42
:100C5000859A62804A871C2D0674647403FD5F18B0
:100C6000BEFA0074C895DF27DBE3C99C7E80258728
:100C7000EB4C07747B0B19D5DB43573F307B00539C
:100C8000D986AF7B6976E095074282131B011F026C
:100C90001CAF6CE2A85D4FEBB8014007E25FEA28A9
:100CA0005DC83AD38943A999D9A37241B16FA60C03
:100CB00030B121379A0E7E7DAA8911557936B71049
:100CC0000D0309EDE277142EE017FC4C00CE84E012
:100CD00038BA9CA9FAA60538440F37841970AD4874
:100CE000E31E62905802E3933D223A028178B36694
:100CF0000FD1C3A4902795E259B100C0D1C4AFACC5
:100D0000616CE1339116C8EF6407201664C5E63ABA
:100D10003897F1BB5EB974D13FC8486C3698A84586
:100D20008006553E80D9FA600935C504036E4659E0
:100D3000FAAC72AB3185834AFAEA3750BF13F53B00
:100D400065378F5872B8B4638C7B0BE3182F8D5FB7
:100D5000BE5A046562930BAC866CAC4FB3C160396C
:100D6000613A279C38A393A91EEDE116EC52B8A571
:100D7000A852E1E0179812DA297DD05264B2D2501D
:100D8000A5A8647628DFD0CB0DF17FA8D87CFD2004
:100D900013B00BCE687E040C678B3ED5615C389B2C
:100DA0002315E52E11824F88A19973B5A0964B4B60
:100DB0004090174D9463F841B4023360639579F421
:100DC000644D80CC00460EE670FF6A360A51E1950C
:100DD0000356B7B074AD9BD188BA6A149C661745A8
:100DE0006D6308E2B9CE007DB8E07D69561A9CC2F9
:100DF0002502A130B438E4AC1C3B9F7ED759125673
:100E0000194F2FCEA3ABD35F30F7C124EEEC6E1D8C
:100E10005D5F7E59A3DF1E9D8CAECF2647D767014D
:100E2000FCF92367B07DA2C18BF1D1F5050E9C7F43
:100E3000FE7AFE297A7FB3FA195DC298FE1D8DAE47
:100E4000CEEF802A6E0BB18D83593806C2EB6F57F7
:100E5000BC5B80E1F86675BEBAFCE72AFA76F9E574
:100E6000E2EB37BCB6003BD7AB1BE8642E4493C51E
:100E700039EEB582BD56B8178C5E9E7E8ECE4EEF93
:100E80002E7019DE6A7D7B7ABB8ED67757EB9F6119
:100E900064BDC29110BB57D7D7AB9BE8EBF5EDE52E
:100EA000D5E5BF5617D1DD17EC6344AD47F1373AAE
:100EB000FB7AFB315A5D7C80A9FE77CC953AC8DE7F
:100EC000A81C41C558B77C836D00EB84BA494CE33C
:100ED000EF8CDE8108C7483AD8D7ABF1E0C8E7CB42
:100EE0007570010785CDE17372F1913703E3C2D1CB
:100EF000EBD3F1E8E4DFE3A3C57F405067F8BDE042
:100F0000EF73FC06574B8D0B6C80DFA7C60A1BE006
:100F1000EBA8F11E1B5335FF0335D4021FB131532B
:100F20000BFC848DB99AF389B651733E5303E77C69
:100F3000EF7927C57DEC4F2613623E96B3F1749E80
:100F400092048A365CF82165B7F8198492B2C036EB
:100F500017B3B11FDCC34DA8C594748CC4D01D66F3
:100F6000681B0D24E1E02D95367AA4B51B86815CC3
:100F7000A13CCDA9A8EBE90435E568751E975E593B
:100F8000B5E070E1AFDA4060792A38AA78644CDEC7
:100F9000D32E836F360AE9D560D6B01387433DB7A9
:100FA0009382A047E37B9BAAF1403FFFA1DB99C45A
:100FB000D194FAA94B729E0653FFDC6238F664B6F0
:100FC000058620AD8A5BA48E159B1CAB38E756C402
:100FD0001249D116B932C0BD14B86969E054949E63
:100FE0002EC798F9600DE7FC20E0D57103B6C03933
:100FF0001425DD7AA0110020644B45FDF7319C37A4
:10100000F5DACA231786B552F23C9C49BFE7129A1B
:101010000E8359998A672F8F1B74277084B2575596
:10102000E322F6C75F1029639DF6EFAA4EDBBB1DD6
:10103000CF3F9EF26BC16570EE7D393DFFC4381D18
:101040005B609137B7BA6FECF6DDAC4E2FD4003A47
:10105000361CB8651FCA3EF3926198A7ABECF6B197
:1010600080D110873D4DA55E4CA82E61FB800C45BC
:101070001617028ECCE5293D5854802394D43C2C7D
:1010800078A24BB4C3A63C6A0AA25C1ED81B57695F
:101090009CD97FE2B00E17EDB1D560C148F762610F
:1010A000523B5EF4D64EBF82C8E82CD4C4E9A24FAE
:1010B0004069BD3D93E4429EA6E861607715B88D16
:1010C000ABF8196F6CA105CA18E04A4819C3158A14
:1010D000328198AE150B0732895A2F21014BBB1C68
:1010E000EB633019F19DA7C20AA980781478130820
:1010F000ED5E9FB08B9B948C525163F9F30AC54F00
:1011000098D783AF6693574F0C9ABF8035C61E1F82
:1011100007DD003945C403EE00D8270F8483195931
:101120005933B2E407151A2A9153DB3DA7F063AC9B
:10113000B46E2ACCE20B603DC6B36D00B6009720BA
:101140006C810E0611CD8D508742A3420F00DBA0AB
:10115000A8E11AD0E23084ADA97AA0CCA111F8FCA4
:1011600087B3B134BE3673F704E73D65790E813E2F
:1011700081AD7AA56F862E76A611DE0F6620D45D2E
:101180008323E1EB25DE90222BBA42F769BB41862F
:1011900075BD9A1ED86031723DE446DDB7B6B5F232
:1011A000456D55799B980ECE87C68CE3D6D536947F
:1011B000261052419FE3EA2D890A6702C6918242B6
:1011C000C35D29BB1A718E60BF44C1001F86BEC5B6
:1011D0006DB24BAB2D0BF84F5C0AA6874B089D5D9B
:1011E000F9000BA353E3772DA75FDA019C40E603D8
:1011F0005E4F82B346E3060425BD44F2D5E37B226D
:101200000670B409DABDB3DC70126647D9A038079E
:1012100031BD68B9FD39F61180BD7855E6E0F81F9B
:1012200081A5F83ED7FEDC087489C5D5679146458F
:10123000979F387A8F05EB41290903896102EB46B4
:10124000C86FABFD23164E1183E7DE805B20A447F9
:101250005E1383D4D36FCA456D89B54374DFACC6C2
:10126000090CD331DC4C869400AC0258018DCE4A77
:1012700080D43ADA12E455757982E478B9143AF8F0
:10128000C5A2571F7307B196750094E24E6CB7F86C
:1012900004A2021E7B0584E2000EF69E09101D00CA
:1012A000729CF88BD98C30886A840442B811CE487D
:1012B00077A1118673F89E7C271096805AC0FC1186
:1012C0003EBD7FB8FEFC381951D25C832F14FCD28E
:1012D000AEAB5AFD448E92DA4369FB31C670FDDE37
:1012E000DD9B123B352BCEF7386339C6E7264ACE55
:1012F0006D7E70EC9B37280F81227D510A417577F6
:10130000ECD31A44E919A84D64CA01389D9E8AA8F5
:1013100016F623BED514F51139FBCFEC638704E331
:10132000356F17C7BEF358D05B795715E0DFF7F775
:1013300070DF2270FEC4D6DD232D69A794446D258D
:1013400098A5AD6C3BA4A6C4CD49DF5B24C51AB8F3
:10135000158937848F4A2A089A5E2D943907D02A36
:10136000EBC86372A084EC4E86DD79BECEC2DC751C
:101370009C9A08A21A53ED55B2D59979972454F343
:10138000473181DF82E3BAEF4FC75C4F412F0670D0
:1013900019D26E37FF958859CA440CCAC53E6226D9
:1013A000774EAF1467CB4EAA58A6B34CAED8B84B05
:1013B000DE77140253AEA50262054716695F25B5B4
:1013C000D2C15E3682E8DAEF2B5771B0C6B1A710F2
:1013D0006EADCED58CA05F52F83D45223787689719
:1013E00030FE31423EE44B5A03905DA17EE4AFEA09
:1013F00079616CEB0483220217E6B15483E8B0E70D
:101400008EFA577AD04B741C0FF99EA7B6B4B07FF2
:10141000062C2A10FF73B75A60952E89CB43EAB683
:10142000FF8C829C06E86D29A1E087EEAE37BA04F6
:101430006FA8FE7F1278C3C7F15B7FF2760CC63AC5
:101440003BDEA6C25F04F77E0A1281943A1C0711A4
:101450009603FCE0F801BC9C681ED4FF72FAFE3FC4
:101460004FAC68B81E0D0000040207040000020023
:101470000204000704040004000004040000000447
:101480000404040704070400020404040004040024
:10149000040401070400040200000000000000062C
:1014A0000002028100100374148000400368147F5E
:1014B000001D066B147E00400371147D000F037441
:1014C000147C00140477147B0017047B147A000A40
:1014D000027F14790040028414780040038114775D
:1014E00000400284147600400284147500100386C4
:1014F00014740011048914730011048D1472000D0A
:1015000002911471000B0198147000400193146F44
:1015100000120494146E000B0198146D00100299CF
:10152000146C0015039B14000040029E146B000E07
:1015300002A0146A000901A214690006000000203C
:10154000002300260029002C002F0032000001009B
:10155000000301060109010F470044004500800116
:101560003548004400450020010D880080008100BE
:1015700080000E8A008000810020000F8C00800017
:10158000810008000CB300B000B10080033EB4003D
:10159000B000B10020032398009000910080002447
:1015A0009A00900091002000259C00900091000876
:1015B000003BA800A000A10080003CAA00A000A160
:1015C0000020003DAC00A000A10008005B28012025
:1015D00001210180005C2A012001210120005D2CF5
:1015E0000120012101080028292A2B2C2D2E2F5003
:1015F000515253545556570011241FBECFEFD1E21C
:10160000DEBFCDBF00E00CBF14BE0FB6F894A895A6
:1016100080916000886180936000109260000FBE2E
:1016200012E0A0E0B2E0E6EEFAE900E00BBF02C093
:1016300007900D92A033B107D9F723E0A0E3B2E001
:1016400001C01D92A23AB207E1F70E949E2A0C94B3
:10165000714D0C940000CF93DF93CDB7DEB7A19707
:101660000FB6F894DEBF0FBECDBF0E948B2A6B0170
:101670007C0180912602882311F40C94C5130E94EA
:101680008B2AC61AD70AE80AF90AF894809126022A
:10169000882361F08FEF809327028093260278944D
:1016A0000000F894809126028111F9CF78940E946D
:1016B0008B2A97018601060F171F281F391F0A8FD3
:1016C0001B8F2C8F3D8F81E08093260280916302D7
:1016D000882309F443C0109263028FEF89838E013F
:1016E0000F5F1F4F31EFE32E34E1F32E67EC70E410
:1016F000C8010E94B82F6C01892B81F1D601569642
:101700008C9182FFF3CF0E948B2AF894F6013789DF
:101710002689422F4B7F468B78949F938F937F939C
:101720006F931F923F9321701F922F9389811F9275
:101730008F93FF92EF920E9462422DB73EB7245FD3
:101740003F4F0FB6F8943EBF0FBE2DBF67EC70E45D
:10175000C8010E94B82F6C01892B81F68091640228
:10176000882339F1109264028FEF89838E010F5F15
:101770001F4F2BEEE22E24E1F22E62E375E4C80146
:101780000E94B82FFC01892BA1F0958D868D9813AE
:10179000F4CFF894858D968D891711F40C94F0147C
:1017A000789462E375E4C8010E94B82FFC01892B8C
:1017B00061F780915302882321F1109253028FEF39
:1017C00089838E010F5F1F4F99EDE92E94E1F92E69
:1017D0006FEE7CE1C8010E94B82F009791F0DC0108
:1017E00058962C912F3FA1F7F894FC0126852111E2
:1017F00096C778946FEE7CE1C8010E94B82F0097DD
:1018000071F780915E02882309F440C010925E0255
:101810008FEF89838E010F5F1F4F83EDE82E84E1E8
:10182000F82E62EF74E3C8010E94B82F009771F19F
:10183000DC011E962C911E9723FFF3CFF894FC0138
:101840002685277F268778949C01265E3F4F3F930D
:101850002F9350968C918695869586951F928F939F
:1018600089811F928F93FF92EF920E946242EDB79F
:10187000FEB738960FB6F894FEBF0FBEEDBF62EF0D
:1018800074E3C8010E94B82F009791F680915C0222
:10189000882309F44BC010925C028FEF89838E017C
:1018A0000F5F1F4FB7ECEB2EB4E1FB2E68E47BE239
:1018B000C8010E94B82FFC01892BC1F1848D80FFE3
:1018C000F5CFF894948125813681478154896589C3
:1018D0007689A789B08DD18CC28CB38C848D8E7F94
:1018E000848F7894BF92CF92DF92BF93AF937F9310
:1018F0006F935F934F933F932F939F9389811F9291
:101900008F93FF92EF920E9462422DB73EB7205F05
:101910003F4F0FB6F8943EBF0FBE2DBF68E47BE289
:10192000C8010E94B82FFC01892B41F680915D020D
:10193000882309F456C010925D028FEF8B87AE01A9
:10194000455F5F4F1A01FCE09F2EA7E08A2E67ECEF
:1019500071E3C1010E94B82F5C01892B09F441C0D9
:10196000D50159968C91599780FFF1CFF894F501E4
:101970004480558066807780818D8E7F818F7894BA
:1019800058968C91813009F4F1C308F4CFC38230AA
:1019900009F41BC48330D9F6CB8419821A829E01C4
:1019A0002F5F3F4F42E061E0F501848995890E94F5
:1019B000262D09811A81102701271027F02FF67094
:1019C000EF2E20E030E0B301A201C5010E943B32BE
:1019D00067EC71E3C1010E94B82F5C01892B09F00B
:1019E000BFCF809160028823F9F0109260028FEFE0
:1019F0008B878E01055F1F4F180149E0B42E0A50F6
:101A0000110952EFC52EDD24DA9406C0D7011E96C7
:101A10008C911E9780FD19C462EE7DE3C1010E9486
:101A2000B82F7C01892B91F780916102882329F1DD
:101A3000109261028FEF8F87FE0131964F012E01C8
:101A4000F7E04F0E511CE8EA6E2EF7E03F2EAFEAAA
:101A50002A2E5E0108E0A00EB11C06C0D7011F9619
:101A60008C911F9780FD68C460E17FE3CE010F96E3
:101A70000E94B82F7C01892B89F78091620288230C
:101A8000D1F0109262028FEF8D87FE013D966F01BB
:101A900062E7962E74E7B72E06C0D70152968C9156
:101AA000529780FDAAC463EC7DE3C6010E94B82F63
:101AB0007C01892B91F7809154028823D9F01092F0
:101AC00054028FEF8D878E01035F1F4F680130E74F
:101AD000932E42E7B42E06C0D70152968C915297AE
:101AE00080FD33C56FE273E2C6010E94B82F7C010E
:101AF000892B91F7809155028823C9F010925502E5
:101B00008FEF89838E010F5F1F4FCC24C394D12C9C
:101B100006C0D70119968C91199781117CC569E986
:101B200074E2C8010E94B82F7C01892B91F7809143
:101B300056028823B9F0109256028FEF8B878E01E0
:101B4000055F1F4F180106C0D80151968C9151971F
:101B50008111B9C462E274E2C1010E94B82F8C0104
:101B6000892B91F780915702882309F493C0109232
:101B700057028FEF8B878E01055F1F4F180160E1C1
:101B800073E2C1010E94B82F8C01892B09F482C035
:101B9000D8011E968C911E9780FFF1CFBB84AE01B9
:101BA0004F5F5F4F68E11C968D919C911D970E943D
:101BB000AE3A89819A8198278927F894F801968509
:101BC0009E7F9687789483FFDACFC388D12C7601E5
:101BD000B4E1EB0EF11CE00EF11EA70160E084857C
:101BE00095850E94AE3AA7014E5F5F4F61E0D80134
:101BF0001C968D919C911D970E94AE3AF8018389A5
:101C00008C5F838B4801FCE48F0E911CD401AC9057
:101C1000A2FE36C0F7012181828190E0A0E0B0E011
:101C2000BA2FA92F982F8827A22B2381822BF80166
:101C3000EC0DFD1D24896C017D01F22AC114D10433
:101C4000E104F0E1FF0608F008C60E948B2AA1FE1D
:101C500002C00C942E16F801E15BFF4F40805180CA
:101C6000628073804C145D046E047F0410F40C9445
:101C700040168A2D8D7FF4018083D80153968C9174
:101C800090E0C0970CF47BCF6B2DC8010F960E949B
:101C9000063975CF80915F02882309F47FC01092C6
:101CA0005F028FEF8B87FE013B961F0177247A94AA
:101CB0008E010F5F1F4F198B088B9E012A5F3F4FCC
:101CC0003B8B2A8BAE01475F5F4F5D8B4C8B8DE169
:101CD000482E25E0622E33E0532E65EF79E3C101F3
:101CE0000E94B82F6C01892B09F458C0D6011E96AA
:101CF0008C9182FFF2CFF894F60144815581668180
:101D00007781F1881686118A789480859185A285DD
:101D1000B3858A019B01081B190B2A0B3B0B0E8B09
:101D20001F8B288F398F86010E5E1F4FD601FF2033
:101D300089F056968C91F601E80FF11D778A108E86
:101D4000118E8D5FF601868B813310F5FA94D601E2
:101D5000F110EFCF1F961C91112309F474C11130BB
:101D600009F4ACC1123009F4CAC5133009F459C6DC
:101D7000143009F49CC6D60156968C9190E0C19718
:101D80000CF4ABCF6B85C60142960E940639A1CFF9
:101D90006B85C8010E940639FA94D9CFA895809125
:101DA0007E02882329F080E48093600010927E02F6
:101DB00010913F03112309F46EC00091300200FD21
:101DC00012C0153008F467C0D0907F02BD2C8BEF95
:101DD0008D0D8C3308F40FC5EEE7BE1609F4ACC7C1
:101DE000016000933002412F50E06EE770E08FE712
:101DF00092E00E94424D009739F00E7F009330022E
:101E00008F57924011E0180F01FD0CC0902F926087
:101E10009093300280E497E09F938F930E946242F8
:101E20000F900F90D12ECC24CA9420E00D2D10E0FD
:101E300019C0822F90E04E2D50E0481B590BB8017D
:101E4000680F791F61587D4F81589D4F0E94584DF2
:101E5000109226022E2D8FB7F89490913F03F91619
:101E600061F08FBFF0903F03EF2CED1811F78FB7A3
:101E7000F89490913F03F912F4CFE0923F038FBFA3
:101E8000F1E0CF1208C080E497E09F938F930E9407
:101E900062420F900F900E948B2A6B017C010A8D89
:101EA0001B8D2C8D3D8D601B710B820B930B8090D5
:101EB000390290903A02A0903B02B0903C021FEF92
:101EC000811A910AA10AB10A8092390290923A02CB
:101ED000A0923B02B0923C024090350250903602F4
:101EE0006090370270903802460E571E681E791EA9
:101EF0004092350250923602609237027092380258
:101F00006115710521E08207910508F044C49B0129
:101F1000AC010E94074CDC01CB0181509F4FAF4FB9
:101F2000BF4F892F9A2FAB2FBB2740913102509181
:101F300032026091330270913402840F951FA61F04
:101F4000B71F84179507A607B70718F48FEF9FEF01
:101F5000DC018093310290933202A0933302B0935C
:101F6000340240914F0250915002609151027091A1
:101F7000520297018601041B150B260B370BB90182
:101F8000A8014115544B644C744008F472CBBF93C4
:101F9000AF939F938F937F926F925F924F92BF9276
:101FA000AF929F928F9281E295E19F938F930E94CF
:101FB00062422DB73EB7225F3F4F0FB6F8943EBF47
:101FC0000FBE2DBF80914F0290915002A0915102FF
:101FD000B0915202C816D906EA06FB0698F4809121
:101FE0004B0290914C02A0914D02B0914E0201968D
:101FF000A11DB11D80934B0290934C02A0934D0202
:10200000B0934E02C0924F02D0925002E092510221
:10201000F092520210923102109232021092330268
:10202000109234021092350210923602109237024A
:10203000109238021092390210923A0210923B022A
:1020400010923C0216CB82E389831A820E948B2A6B
:102050004B015C019E012F5F3F4F42E061E0F601C2
:10206000848595850E94262D0E948B2ADC01CB0158
:1020700088199909AA09BB0981329340A105B105C4
:1020800008F046C0898187FD73C32A81E22EF12CB6
:102090009701220F331FE82EF12CC701982F8827B4
:1020A000990F7901E82AF92A950184014E895F89FF
:1020B000688D798DC6010E94613A5DCE8FE7898374
:1020C0008EEF8A830E948B2A6E8F7F8F88A399A3BD
:1020D0009E012F5F3F4F42E060E0D6011C968D913C
:1020E0009C911D970E94262D0E948B2A4B015C011A
:1020F000DC01CB010E8D1F8D28A139A1801B910B16
:10210000A20BB30B81329340A105B10508F4B3C310
:10211000D60156968C91F601E80FF11D778A92E070
:10212000908F118E8D5FF601868B25CECB84198220
:102130001A821B821C829E012F5F3F4F44E061E0A8
:10214000F501848995890E94262D69817A818B8188
:102150009C810E94174CF62FF770EF2E8B019C018B
:10216000B301A201C5010E943B32F1CB0B850E8B5E
:1021700099821A821B821C829E012F5F3F4F44E08E
:1021800061E0848995890E94262D69817A818B81FD
:102190009C810E94174C6B017C01BFE0B9831A82BD
:1021A0009E012F5F3F4F42E061E0F50184899589F0
:1021B0000E94262D970186013327CE88EA80B3013D
:1021C000A201C5010E943B32C2CBCB8481E089834E
:1021D0001A821B821C829E012F5F3F4F43E061E009
:1021E000848995890E94262D69817A818B819C81C1
:1021F0000E94174CBB27A92F982F872F8C019D0178
:10220000222733270E8B1F8B288F398F89821A82C2
:102210009E012F5F3F4F42E061E0D50154968D91C2
:102220009C9155970E94262D8A81982F9C7F8E899C
:102230008170E92EE82A0E891F89288D398DB30116
:10224000A201C5010E943B3282CBAB84F8012B2D49
:1022500011922A95E9F7C982980149E061E01C963C
:102260008D919C911D970E94262DD70153968C919C
:1022700090E0FC017496EE0DFF1D3B81232F207F23
:10228000E1F0203FD1F0D482D382D282D182F70113
:10229000E80FF91FD48AF70183898B5F838B8F3214
:1022A00008F017C3D7011E968C911E978E7F1E963D
:1022B0008C93C7010E94A43FAFCB2D81422F407F5A
:1022C00009F0C7C25F81452F407F11F0403FD9F62A
:1022D00048854039C1F649854F77942EB0E2B4174E
:1022E00090F2D701A80FB91F4A8154964C938C8164
:1022F00081838E818283852F90E03F71AC01440FF2
:10230000551F42955295507F5427407F5427342BB8
:102310003383880F991F880F991F80762F71822B26
:102320008483D70153968C9153978B5F53968C93EC
:102330008F3208F4D4C2CEC27F8455968C91C82EB9
:10234000D12CB6E1CB0ED11CCE0CDF1CF70196854B
:10235000911143C2D401E32D1D92EA95E9F72B8632
:102360001C866982D70150968C91813009F448C44B
:10237000940147E061E0F701848595850E94262D50
:102380009E01255F3F4F42E061E0D7011C968D9191
:102390009C911D970E94262DF70180891C85012F95
:1023A000813009F4E5C30F731074FE013296D60133
:1023B00081918D93EA15FB05D9F7D70155968C913C
:1023C00055978A5F55968C938E3208F0AEC31123D1
:1023D00031F0F701838994890196948B838B0023D4
:1023E00009F403C2D7011F968C911F978E7F1F9609
:1023F0008C93C7010E94583F37CBAD8450968D9186
:102400009C915197C09770F1B9828701085E1F4F68
:1024100020E3AE014F5F5F4F61E0F7018485958552
:102420000E941D270E94941880E3D70157968C9331
:10243000579750968D919C915197C09751969C9328
:102440008E9350976A2DC70143960E940639F70173
:1024500080899189C09778F11092260281E080935B
:10246000620221CBD7011C968D919C911D979B8672
:102470008E010F5F1F4F22E0AE01455F5F4F61E0AD
:102480000E941D270E94941889818F7190E0982FD7
:1024900088272A81822BF701268537852817390757
:1024A00010F497878687D70151969C938E93509707
:1024B000C0970CF0A9CFF70182898E7F828BC7016C
:1024C0000E94D025F0CABB8419821A821B829E0109
:1024D0002F5F3F4F43E061E01F968D919C91509795
:1024E0000E94262DF801118A8981CA80D12CE12C05
:1024F000F12CFE2CED2CDC2CCC24E82A8B81C82A74
:10250000E7FE02C0FF24FA94F801E55BFF4F8081EB
:102510009181009721F0B701A6010E949619D80178
:1025200057968C91F801E80FF11DC08ED18EE28E86
:10253000F38E8C5FF801878B803308F40BCB6B2D07
:10254000C80143960E94063905CBAD8450968D9103
:102550009C915197C09770F1B9828701085E1F4F17
:1025600020E3AE014F5F5F4F61E0F7018485958501
:102570000E941D270E94941880E3D70157968C93E0
:10258000579750968D919C915197C09751969C93D7
:102590008E9350976A2DC70143960E940639F70122
:1025A00080899189C09778F11092260281E080930A
:1025B000540298CAD7011C968D919C911D979B86B9
:1025C0008E010F5F1F4F22E0AE01455F5F4F61E05C
:1025D0000E941D270E94941889818F7190E0982F86
:1025E00088272A81822BF701268537852817390706
:1025F00010F497878687D70151969C938E935097B6
:10260000C0970CF0A9CFF70182898E7F828BC7011A
:102610000E94D02567CAB9801896AC9018972A2DC9
:1026200030E052960D90BC91A02DF701948845881A
:1026300056889789295E3F4F40E050E0BA016B2CE5
:10264000F201792C5A2CF8949083000000009083BA
:102650008C917894440F551F661F771F8721812C1A
:10266000912C54018394811103C0812C912C54012D
:10267000482959296A297B292150310920F7B62C8C
:10268000A52CF894D70119962C91199719961C929C
:1026900078942A013B010A2C04C0769467945794DD
:1026A00047940A94D2F767FE02C077247A94C60151
:1026B00001C0880FAA94EAF7815090E0A0E0B0E052
:1026C000482359236A237B2384179507A607B70756
:1026D00009F431C220E030E040E050E8D7011E9616
:1026E0002D933D934D935C93519740E830E020E06B
:1026F00090E0D7015C968C91F701E80FF11D958F62
:10270000268F378F40A38C5FF701848F803308F4C6
:1027100006CA6B2DC70148960E94063900CA318D42
:10272000308F7894AC01415F5F4F5F934F931F925E
:102730002F93FC0187891F928F9389811F928F931A
:10274000FF92EF920E9462422DB73EB7265F3F4F45
:102750000FB6F8943EBF0FBE2DBF3AC82A893B89F9
:10276000E217F30709F0CFC19E81981709F464C2FC
:10277000D60156968C91F601E80FF11D778A508E9E
:10278000118E8D5FF601868BF6CACA8EDB8EEC8EBB
:10279000FD8E0C94630B6115710530E18307910583
:1027A00008F0D4CB8B019C0101501F4F2F4F3F4F9E
:1027B0005527432F322F212F0E94074CDC01CB01DC
:1027C0004091310250913202609133027091340293
:1027D000840F951FA61FB71FB4CB913009F4D7C142
:1027E0008A5F858B8E3208F09EC110922602F1E03E
:1027F000F093610239C9C09080028C2D807F8031B6
:1028000009F0EACA1D1508F446CB8D2D90E0FC01B5
:10281000E258FD4F20812E3709F0DECAFC01E45852
:10282000FD4F1F01FC01E358FD4F9081D1018C91B8
:10283000292F30E07901F82A6DEF6D0D8FE792E0D6
:102840000E94A12AE816F90609F478C2B0907F0226
:10285000C3CA403F09F017CD35CDD4011C92F80111
:10286000E25BFF4F60813497808191810E94C84173
:10287000F801838905CA80EC89831A829E012F5F43
:102880003F4F42E061E0D6011C968D919C911D97CF
:102890000E94262D2981EA80922F9E25892F8295DC
:1028A0008F709827892F869586958927982F9695DA
:1028B000892780FDB5C126FF09C2F6018689E80F88
:1028C000F11D778A608E118E8D5FD60156968C939E
:1028D00052CA912C6A2DC7010F960E940639BEE19B
:1028E000B91508F064C3F701818992890196928B2A
:1028F000818B1092260281E0809360028DC8D60100
:102900001C96ED91FC911D971481F280038140E0AB
:102910006F2D702F812F0E94932F0E948B2A4B01C5
:102920005C01B0E18B0E911CA11CB11C0E948B2A92
:102930002B2D86169706A806290B27FFF7CFF894AC
:1029400041E06F2D702F812F0E94932F0E948B2AC0
:102950004B015C0178948AE0E889F98911928A95A3
:10296000E9F784E8898383E28A839E012F5F3F4FE2
:102970004AE061E0D6011C968D919C911D970E94C2
:10298000262DFE01339685E09191892728E030E0DD
:1029900004C0880F2150310939F087FFFACF880F22
:1029A000842521503109C9F70C891D89E017F107E9
:1029B00059F7809590E02A8530E08217930709F057
:1029C000D7CE898584FF66C08B8187FD8AC1D601F9
:1029D00056968C91F601E80FF11D778A94E0A0CB12
:1029E0005489658990892189328943898F5F858FD0
:1029F00078946F935F934F933F932F939F93898125
:102A00001F928F93FF92EF920E9462424DB75EB782
:102A1000465F5F4F0FB6F8945EBF0FBE4DBF0C947C
:102A2000BD0B83E889831A821B820E948B2A4B018B
:102A30005C019E012F5F3F4F43E061E0D6011C9691
:102A40008D919C911D970E94262D0E948B2A9B019F
:102A5000AC01281939094A095B0949015A0131E2D7
:102A6000831633E09306A104B10408F051CB3A81F8
:102A70002B81532F5227452F42954F705427452FB6
:102A8000469546955427452F4695452740FDBBC0A2
:102A900021FF0BC1D60156968C91F601E80FF11D6E
:102AA000778A608E118E8D5FF601868B64C986E011
:102AB000EAE2F2E0DE01119601900D928A95E1F7CB
:102AC0000E948B2A4B015C019E012F5F3F4F46E025
:102AD00061E0D6011C968D919C911D970E94262D38
:102AE0000E948B2AAB01BC01DB01CA01881999093C
:102AF000AA09BB0981329340A105B10508F008CBB2
:102B0000FE01339680E09191892728E030E005C0EE
:102B1000880F2150310909F421CE87FFF9CF880FA2
:102B200007E08027F6CF00E010E0672DC70141964F
:102B30000E9406394CCC21FD1DC0F7014685578502
:102B400060897189411551056105710509F02AC235
:102B5000F701E05BFF4F80819181009721F0B30185
:102B6000A2010E949619942D252D362D472DC1CDF9
:102B700000721ACC20E030E040E050E4D7011E960D
:102B80002D933D934D935C93519740E4AFCDF8E284
:102B9000FE87D70150968C91813009F484C0BFE242
:102BA000BD87840126E0AE01425F5F4F61E0F7011F
:102BB000848595850E941D270E9494188E01055FCB
:102BC0001F4F21E0AE01435F5F4F61E0D7011C96CC
:102BD0008D919C911D970E941D270E949418F701CA
:102BE00080891B85012F813009F45BC00F7310743D
:102BF000D401F6018D918193A415B505D9F7DDCBEC
:102C0000B8EEB983B5CBD60156968C91F601E80F94
:102C1000F11D778A108F118E8D5FF601868BABC800
:102C2000F6018689E80FF11D778A508E118E8D5F2F
:102C3000D60156968C939FC88D8181FD2BCFEB805A
:102C4000FC80FE24EF24FE248A019B014E895F89CB
:102C5000688D798DC6010E94613A8DC8F801ED5AE0
:102C6000FF4F4080518062807380292F6415750565
:102C70008605270927FD02C00C942B0E0C943D0EEF
:102C8000F801ED5AFF4F60837183828393833697F7
:102C900060813397808191810E94C84180E00C94CB
:102CA0003B0E0072A4CF6E867ACF432F50E0542F94
:102CB00044272C7F7A01E22A8B019C014E895F898F
:102CC000688D798DC6010E94613A55C8822F90E0C7
:102CD000982F8827990F990FB4E0EB9E700111246B
:102CE000E1C90E891F89288D398D801A910AA20A9F
:102CF000B30A11E5811615E59106A104B10408F0A7
:102D000042C12C8130E0220F331F90E0982F88279A
:102D1000990F822B932BD60156963C91F601E30F27
:102D2000F11D2F8126952F73278B808F918F3D5F0B
:102D3000F601368B0C94BB0E11E074C8802F8D7F8A
:102D40008093300280910802C81229C181E08C0D65
:102D50008F70806180930802B1E82B16B2E03B06C9
:102D600009F008F4FAC001E812E08EE3E82E87E0EB
:102D7000F82E99E0C92E8DB69EB6D8012C9127FD6C
:102D8000B4C00F5F1F4F30E02115310509F404C1B5
:102D9000F701859194912817390708F0FDC0A90122
:102DA000440F551F440F551F440F551F420F531F0B
:102DB000FA01E157FC4FE4918DB79EB7A4E0EA9F7A
:102DC0008019910911240FB6F8949EBF0FBE8DBFD4
:102DD0000196FA01EF56FC4F6491FA01EE56FC4F52
:102DE00045915491FA01460F511DBA01AC019F8AD9
:102DF0008E8A9F8F8E8F6E177F0709F488C02016EA
:102E0000310608F46FC0A491A53028F1A73009F06D
:102E100069C02801BFEF4B1A5B0AD8016C90820190
:102E2000060D111D2016310608F45CC0712C812C92
:102E3000912CDA016D927D928D929C921397612C68
:102E4000712C14964D925D926D927C921797485F0B
:102E50005F4F3196D0CF5A0184E0A80EB11C4801D3
:102E60009FEF891A990AD8011C91912F9F77492EBB
:102E7000512C612C712C012F0076003609F440C0D2
:102E800017FF6FC084010F5F1F4FD80111978C91FE
:102E9000440C551C661C771C440C551C661C771C86
:102EA000440C551C661C771C440C551C661C771C76
:102EB000440C551C661C771C440C551C661C771C66
:102EC000440C551C661C771C982F9F77492A87FD58
:102ED000DACFDA014D925D926D927C921397A50143
:102EE000319689CF87E00E94964B2F77B0E82B9FD1
:102EF00090011124F8018181282B0E5F1F4F44CFD0
:102F0000B0EE4B2A55245A94652C762CB9CF8E8876
:102F10009F888E8D9F8D40912802442351F0C29E40
:102F2000F001C39EF00D1124E057FC4FE491E0FF47
:102F30001AC0C29EF001C39EF00D1124EC56FC4F46
:102F400025913491F90119950FB6F8949EBE0FBEE4
:102F50008DBE0215130508F40ECFCC24C3940C9437
:102F6000150F8401B6CF809129021F928F93E3E35E
:102F7000F5E1FF93EF930E9462420FB6F8949EBE74
:102F80000FBE8DBEE6CFD60156968C91F601E80FA6
:102F9000F11D778A91E0C4C885E00E94964B1D2DF3
:102FA0000C940A0F942F252F362F472FA2CBF1E038
:102FB000F91508F49ECC76C980914502909146029D
:102FC0009F938F9321E030912802311101C020E0BE
:102FD0001F922F9320914A022F93209149022F9301
:102FE000209148022F93209147022F9321E0892BB3
:102FF00009F420E01F922F938FE095E19F938F9328
:103000000E9462428DB79EB70C960FB6F8949EBF91
:103010000FBE8DBF08950E948B2A9F938F937F933D
:103020006F9385E195E19F938F930E9462420F9089
:103030000F900F900F900F900F9008950F931F9384
:10304000CF93DF938C018091450290914602892BAA
:1030500009F04BC06091440270E0623071052CF4BD
:1030600082E08093440262E070E0E0914002F091DF
:1030700041024DB75EB741505F4F44275A959F01BB
:10308000C0E0D0E0C901860F971F4817590730F1FB
:1030900021969C01C115A4E0DA07A1F78E1B9F0BB6
:1030A0000E943F42D0934602C09345029093430250
:1030B000809342020E942330F80180819181A28195
:1030C000B3818093470290934802A0934902B09342
:1030D0004A02DF91CF911F910F910895209711F02F
:1030E000C901DCCF80E10E94964B8DE00E94964B97
:1030F000CF9320913E0230913F02232B91F4FC01AB
:10310000C0818C2F90E0880F991F880F991F0E9413
:103110003F4290933F0280933E02C0933D02CF9185
:1031200008958AE00E94964B8230910589F05CF008
:103130008330910529F0049771F48DE10E94964B3C
:103140008EE10E94964B019739F48FE10E94964BD5
:103150008CE10E94964B089508958091280288235F
:1031600029F0823011F010922802089582E00E9426
:10317000964B88E00E94964BCF92DF92EF92FF929F
:10318000FC0140815181628173812481E4E6F4E194
:1031900085919591A591B491481759076A077B07C6
:1031A00070F56A017B01C20ED11CE11CF11C8C156B
:1031B0009D05AE05BF0500F5841B90E09A012A5BD2
:1031C000384F3F932F939F938F937F936F935F938A
:1031D0004F9387E295E19F938F930E9462428DB750
:1031E0009EB70A960FB6F8949EBF0FBE8DBFFF9094
:1031F000EF90DF90CF900895822F90E0DFCF80E0B6
:1032000090E0DCCFCF92DF92EF92FF920F931F936B
:103210000E948B2A9F938F937F936F9301E010E01E
:1032200020E030E0C0904F02D0905002E090510278
:10323000F09052026C157D058E059F0518F000E098
:1032400010E0980180914B0290914C02A0914D02A8
:10325000B0914E02800F911FA21FB31FBF93AF9377
:103260009F938F938BE195E19F938F930E9462428E
:103270008DB79EB70A960FB6F8949EBF0FBE8DBF4E
:103280001F910F91FF90EF90DF90CF9008958EE007
:103290000E94964B8C0149E350E06AE479E1FC011D
:1032A00080810E94DC2FEC011AA61C861D861E86DA
:1032B0001F861DA61EA668EA78E3F80184810E9495
:1032C0000B3098AF8FAB84E30E94964BCF93DF9384
:1032D000EC019AA5892F817090FF19C091FD1AC049
:1032E0008EA59DA59817D0F08F5F8EA74C815D812C
:1032F0006E817F818C899D89AE89BF89840F951FDE
:10330000A61FB71F8C839D83AE83BF8381E0DF91AF
:10331000CF91089580E0DF91CF9108956CA56E5F05
:103320008C8D9D8D0E94C8418EA5DECF2F923F923D
:103330004F925F926F927F928F929F92AF92BF92C5
:10334000CF92DF92EF92FF920F931F93CF93DF9371
:10335000CDB7DEB7A3970FB6F894DEBF0FBECDBFD3
:10336000DC019A962C9120FD19C0A3960FB6F89413
:10337000DEBF0FBECDBFDF91CF911F910F91FF90A8
:10338000EF90DF90CF90BF90AF909F908F907F9005
:103390006F905F904F903F902F9008956A017B014E
:1033A0009E8F8D8F0E948B2AED8DFE8D608B718B91
:1033B000828B938B16A642A542FD65C2842F8B7F1C
:1033C000AD8DBE8D9A968C939A97FD01868D978DC3
:1033D000A0A1B1A18C159D05AE05BF050CF034C2AE
:1033E000ED8DFE8D82A193A1A4A1B5A1C816D90629
:1033F000EA06FB060CF028C2ED8DFE8D86A197A192
:10340000A0A5B1A516012701281A390A4A0A5B0AA4
:10341000C201B10123A934A945A956A90E94824C31
:103420000EE00E94BC4CB22FA32FF42EE52E1B0100
:103430008C0150586F4F7F4F8F4F9F4F2F3F3F4F03
:103440004F4F5F4F610571058105910511F008F03F
:103450002AC29D01C7013D87AE879F87E88AED8D0F
:10346000FE8D07A8F0ADE02DFA8FE98F83818823C8
:1034700009F42AC2E98DFA8D8181882309F4BFC13C
:10348000482E512C5C8E4B8EBF8BAD87F986EB8A14
:103490002AA23BA20F8F188F80859185A285B385C4
:1034A0002C013D01770C4408542C3201AF88BD84B7
:1034B000CF2CDE2C71019C01AD01642D742D842D67
:1034C000942D0E94294C59016A017B018C01E98DE0
:1034D000FA8D84819581A681B7811C012D01612C13
:1034E000712C430189833A824B825C826D827E8299
:1034F0008F829886E2814E2E512C5A8A498A9101F8
:103500004B815C8160E070E080E090E00E94DA4CEA
:103510000E2F0E94BC4C49015A0150586F4F7F4FEB
:103520008F4F9F4F2F3F3F4F4F4F5F4F61057105AB
:103530008105910511F008F0C5C1298C3A8C39A29A
:1035400028A21A8E198E7D8469845B882AA03BA0EC
:103550004F8C3BC0A8A1B9A194966D917D918D919E
:103560009C9197972D853E854F8558890E94824C66
:10357000A980BA80CB80DC80ED80FE800F81188529
:103580000E94DA4C09890E94BC4C49015A01E8A109
:10359000F9A17C96F9A3E8A350586F4F7F4F8F4F46
:1035A0009F4F2F3F3F4F4F4F5F4F61057105810583
:1035B000910511F008F086C12D842F8A7E846F84D6
:1035C00058882B88322C422C288EE8A1F9A1848DB2
:1035D000958DA68DB78D9C01AD01280D391D4A1D15
:1035E0005B1D2D873E874F87588B84859585A685E3
:1035F000B7859C01AD01550F220B322FA9012987F8
:103600003A874B875C87AF88B72CC62CD52C7101C5
:10361000042D188D9C01AD016985762F862F962F7C
:103620000E94294CA980BA80CB80DC80ED80FE808E
:103630000F8118850E94DA4C09890E94BC4CB22F78
:10364000A32FF42FE52F50586F4F7F4F8F4F9F4F71
:103650002F3F3F4F4F4F5F4F61057105810591052A
:1036600011F008F02FC1B987AA87FB87EC87A8A1C2
:10367000B9A154966D917D918D919C9157972D850F
:103680003E854F855889550F220B322FA9012B8B70
:103690003C8B4D8B5E8B2D853E854F8558890E94D6
:1036A000824C0F8118850E94DA4C09890E94BC4C1B
:1036B00049015A0150586F4F7F4F8F4F9F4F2F3FF7
:1036C0003F4F4F4F5F4F610571058105910511F027
:1036D00008F0F8C089859A85AB85BC858819990959
:1036E000AA09BB09E8A1F9A140A151A162A173A156
:1036F000840F951FA61FB71F848F958FA68FB78F36
:1037000080899189A289B3899C01AD01550F220B53
:10371000322FA90129873A874B875C87AF88B72C5E
:10372000C62CD52C7101042D188D9C01AD01698525
:10373000762F862F962F0E94294CA980BA80CB80A5
:10374000DC80ED80FE800F8118850E94DA4C0989AB
:103750000E94BC4CB22FA32FF42FE52F50586F4F6F
:103760007F4F8F4F9F4F2F3F3F4F4F4F5F4F610511
:1037700071058105910511F008F0A4C04B2E5A2E59
:103780006F2E7E2EA8A1B9A158962D913D914D91F5
:103790005C915B976D857E858F8598890E94824CB0
:1037A0000F8118850E94DA4C09890E94BC4C49019E
:1037B0005A0150586F4F7F4F8F4F9F4F2F3F3F4FB2
:1037C0004F4F5F4F610571058105910511F008F0BC
:1037D00079C0481859086A087B08E8A1F9A140A2F5
:1037E00051A262A273A2298D3A8D2F5F3F4F3A8F6B
:1037F000298F2B8C3C8C2215330509F0ABCE8D859F
:103800009E8597FD5BC0092E000CAA0BBB0BED8DAE
:10381000FE8D47A550A961A972A984179507A6072F
:10382000B7070CF4A2CD82A581FD9FCD40895189B7
:10383000628973894487558766877787826082A704
:1038400063A5848D958D05C0ED8DFE8D64A5848D59
:10385000958DA3960FB6F894DEBF0FBECDBFDF9156
:10386000CF911F910F91FF90EF90DF90CF90BF907D
:10387000AF909F908F907F906F905F904F903F9010
:103880002F900C94C841AD8DBE8D58960D911D9111
:103890002D913C915B97592F601771078207530B4D
:1038A00057FF8CCD62CDAD8DBE8D9C966C919C9753
:1038B0006F5F5C968D919C915D97CBCF9195819533
:1038C0009109A1CF0E94BC3882E30E94964BCF930E
:1038D000DF93EC016A8D662309F453C0FC0150E0CC
:1038E00031E020E0A38DB48D4C91958D942309F0A7
:1038F000532B2F5F330F33962613F4CF2C85922F43
:10390000952729F08D85852780959823D9F4888D72
:103910005D8787FD03C0815070F1888F4C815D8188
:103920006E817F8188859985AA85BB85840F951FC7
:10393000A61FB71F8C839D83AE83BF8381E0DF9179
:10394000CF910895982F909529238523822B8C87DA
:103950009E859830E0F621E0290F2E87FE01E90FC1
:10396000F11D87871092260281E0809353028FEF2A
:10397000888F5D87D3CF1092260291E090935302F7
:10398000CCCF50E0BBCF0F931F93CF93DF938C012D
:103990006FEE7CE1DC018C910E940B30FC01D801C0
:1039A00014969C91828D9817B8F4292F30E0E90184
:1039B000CC0FDD1F2C0F3D1FEF01C20FD31FF801ED
:1039C000648580850E945A2F6B8F7C8F8D8FDF914D
:1039D000CF911F910F91089583E20E94964BCF9350
:1039E000FC01C481C930B8F44C2F50E09A01220F79
:1039F000331F420F531F455E5F4F6FEE7CE1FC01AA
:103A000080810E94DC2FFC01C28F27E63CE13383DA
:103A10002283CF91089584E20E94964BFC01448159
:103A2000558166817781208580810C949B30EF924F
:103A3000FF920F931F93CF93DF937C0161E97DE1A8
:103A4000DC018C910E940B308C010E948730EC01CC
:103A5000F70184819581A681B7818A839B83AC839A
:103A6000BD83808591859F838E83F8941982188207
:103A7000D80151968D919C915297892BB9F153960B
:103A8000ED91FC915497D183C0835496DC93CE93EF
:103A9000539780E090E07894892B39F4DF91CF91AF
:103AA0001F910F91FF90EF900895C8010E94C648A2
:103AB000D80112968D919C911397855A9642F1F0F8
:103AC0008A819B81AC81BD8120E236E2F80133839B
:103AD000228384839583A683B783C801DF91CF9126
:103AE0001F910F91FF90EF900C941849F801D48B1F
:103AF000C38BD28BC18B81E090E0CDCF8A819B813B
:103B0000AC81BD81F8014481558166817781272F81
:103B1000481759076A072B0B27FFD6CF80E20E9470
:103B2000964BCF92DF92EF92CF93DF93EC014885D3
:103B300059856A857B852C858C810E949B306B0121
:103B4000E82E45E150E061E97DE188810E94DC2FAB
:103B5000FC01C086D186E28688899989908B878707
:103B60008C899D89AE89BF8983879487A587B6870D
:103B700080E296E29383828368E070E0CF01419611
:103B8000DF91CF91EF90DF90CF900C946D308F92BA
:103B90009F92AF92BF92FF920F931F93CF93DF93A9
:103BA0008C0168E57EE1FC0180810E940B30EC0114
:103BB0000E94C6488F8D98A1892B09F058C0F80142
:103BC00004811BA1FF24F394002339F16C897D89C2
:103BD0008E894F2D0E94932F21E001111CC014FBF0
:103BE000882780F991E08927281741F08F89988DDF
:103BF000A98DBA8D892B8A2B8B2B89F410711F29E3
:103C00001BA3DF91CF911F910F91FF90BF90AF90B9
:103C10009F908F90089520E0E2CFF12CD7CF0E94A3
:103C20008B2A8F88988CA98CBA8CDC01CB01880DEB
:103C3000991DAA1DBB1D888B998BAA8BBB8B8C836E
:103C40009D83AE83BF838FE79FE19B838A8310713F
:103C500014601F291BA3CE01DF91CF911F910F91FB
:103C6000FF90BF90AF909F908F900C94184982E185
:103C70000E94964BCF93DF93EC0168E57EE188814B
:103C80000E940B30F894FC01278D30A1232B69F49E
:103C90004C815D816E817F81FC01438F548F658FE4
:103CA000768F7894DF91CF91089584E10E94964BAE
:103CB000CF92DF92EF92CF93DF93EC0161E08885A2
:103CC0009985AA85BB85892B8A2B8B2B09F460E00B
:103CD0008C810E9434296B01E82E44E250E068E5B3
:103CE0007EE188810E94DC2FFC01C48AD58AE68AA5
:103CF00021E0488559856A857B85452B462B472BD6
:103D000009F420E04C855D856E857F85452B462B2B
:103D1000472BB1F430E0232BFC0123A348895989B8
:103D20006A897B89478B508F618F728F6AE070E060
:103D30004F96DF91CF91EF90DF90CF900C946D3044
:103D400030E1E9CFCF92DF92EF92FF920F931F9372
:103D5000CF93DF938C0168E57EE1DC018C910E94BA
:103D60000B30EC010E948730FC01D8011496CD90F5
:103D7000DD90ED90FC901797C282D382E482F582A9
:103D800018964D915D916D917C911B974683578359
:103D900060877187F894118210828F8D98A1892B8A
:103DA00081F0A9A1BAA1ED93FC93FAA3E9A37894B9
:103DB000DF91CF911F910F91FF90EF90DF90CF9007
:103DC0000895FAA3E9A3F8A3EF8F8BA182FD25C084
:103DD000C88AD98AEA8AFB8A982F94609BA381FDBE
:103DE00010C0CE010E94C648CC82DD82EE82FF82E6
:103DF0008FE79FE19B838A83CE010E9418497894C4
:103E0000D7CF4C815D816E817F81872F4C155D05F9
:103E10006E058F0987FFE5CFF2CF488959896A89F6
:103E20007B89972F4C155D056E059F0997FFD0CFB5
:103E300083E10E94964B0F931F93FC01A489B589DF
:103E400086898C9393A181E0892783A3448155813E
:103E50006681778180FF12C00085118522853385B8
:103E6000400F511F621F731F82FD12C04483558390
:103E70006683778381E01F910F91089504851585EE
:103E800026853785400F511F621F731F82FFEECFBB
:103E90000089118922893389872F401751076207CA
:103EA000830B87FDE3CF8FE79FE193838283B90183
:103EB000A801448355836683778381E01F910F9126
:103EC00008950895FC018081A481B58140855185C4
:103ED000628573859FB7F894813061F0823019F064
:103EE0004C939FBF08954D935D936D937C9313976F
:103EF0009FBF089511965C934E939FBF08958F9234
:103F00009F92AF92BF92CF92DF92EF92FF921F9358
:103F1000CF93DF93EC01EF8CF8A0E114F10409F4E6
:103F2000F0C0F7018081918198A38F8F8680978060
:103F3000A084B18411E081149104A104B10409F4B6
:103F4000A1C06C897D898E89412F0E94932F809119
:103F5000580290915902F70191838083F09259029F
:103F6000E092580281149104A104B104E9F08B8D10
:103F70009C8DAD8DBE8D88169906AA06BB06A0F451
:103F80004F89588D698D7A8D4115510561057105EF
:103F900009F45BC08C819D81AE81BF81480F591FA0
:103FA0006A1F7B1F166022C08BA131E0811491042F
:103FB000A104B10409F068C084FB992790F921E0BD
:103FC0009227391709F443C04F89588D698D7A8D2E
:103FD0004115510561057105D1F18C819D81AE813D
:103FE000BF81480F591F6A1F7B1F1460EF8DF8A116
:103FF000309709F077C02BA1488B598B6A8B7B8B4C
:104000002071212B2BA311FF5FC0880D991DAA1DC4
:10401000BB1D12FD52C02BE13FE13B832A838C8301
:104020009D83AE83BF8388869986AA86BB868B8D47
:104030009C8DAD8DBE8D88199909AA09BB098C8705
:104040009D87AE87BF8781E011C012608BA1EF8D85
:10405000F8A13097D9F4188A198A1A8A1B8A8071B4
:10406000812B8BA3812F827011FD34C0DF91CF9102
:104070001F91FF90EF90DF90CF90BF90AF909F90F7
:104080008F90089510E05DCF30E096CF428153814C
:1040900064817581488B598B6A8B7B8B8071912FE2
:1040A0009460892B8BA311FF0FC08C819D81AE8101
:1040B000BF81880D991DAA1DBB1D2B2F8417950745
:1040C000A607270B27FDA7CF4C835D836E837F83D5
:1040D00081E0CCCF40E050E0BA018C819D81AE817F
:1040E000BF8193CFC280D380E480F580872F4C15A9
:1040F0005D056E058F0987FD07C08BA1B701A6017D
:10410000C9CF85E10E94964B83E10E94964BFC014A
:1041100085818F9384818F9380811F928F9389E013
:1041200095E19F938F930E9462420F900F900F90A2
:104130000F900F900F900895DC012C911496ED9143
:10414000FC9115973FB7F8942130E9F02230B1F097
:10415000808190E0A0E0B0E03FBFBF93AF939F931A
:104160008F9383E095E19F938F930E9462420F901B
:104170000F900F900F900F900F9008958081918174
:10418000A281B381E9CF80819181A0E0B0E0E4CF4A
:10419000FC01868580FF06C0218932892F5F3F4F51
:1041A000328B218B81FF0DC0DF01A95BBF4F0D90CA
:1041B000BC91A02D2C91DF01A75BBF4F9C91922356
:1041C00039F4816086871092260281E0809357023D
:1041D000448155816681778180859185A285B385EB
:1041E000840F951FA61FB71F84839583A683B7836B
:1041F00081E00895CF93DF93FC0180859185A285AE
:10420000B38521892223F1F0258936892F5F3F4F1D
:10421000368B258B880F991FAA1FBB1F880F991FEC
:10422000AA1FBB1F4481558166817781840F951F2A
:10423000A61FB71F84839583A683B78381E0DF9190
:10424000CF910895C485D58538812685232351F7DC
:1042500021E0218B1092260220935602880F991F8D
:10426000AA1FBB1F880F991FAA1FBB1F880F991F6A
:10427000AA1FBB1FD7CFCF93DF93FC018285938505
:10428000A485B585218520FF20C0228D338D2F5F29
:104290003F4F338F228F23E02187880F991FAA1F5A
:1042A000BB1F880F991FAA1FBB1F448155816681C0
:1042B0007781840F951FA61FB71F84839583A683DC
:1042C000B78381E0DF91CF910895C289D389388186
:1042D0002489232351F721E021871092260220937D
:1042E0005502880F991FAA1FBB1F880F991FAA1F6D
:1042F000BB1F880F991FAA1FBB1FD7CFFC01928934
:104300009160928B1092260281E08093540280E0AB
:1043100008952F923F924F925F926F927F928F9269
:104320009F92AF92BF92CF92DF92EF92FF920F9344
:104330001F93CF93DF931F921F92CDB7DEB73C013F
:1043400060E173E2FC0180810E940B304C01FC01B2
:10435000868581FF36C0F8940E948B2A9B01AC01B0
:10436000F401E95BFF4F0190F081E02D9081F401B1
:10437000E75BFF4F808189237894882309F448C044
:10438000A12CB12C6501E12CF12C8701F301608196
:10439000C4010F960E94BF380F900F90DF91CF910C
:1043A0001F910F91FF90EF90DF90CF90BF90AF9053
:1043B0009F908F907F906F905F904F903F902F9045
:1043C00008950E948B2A1B012C01AE014F5F5F4FA5
:1043D00068E1F401848595850E94AE3A09811A81CD
:1043E000102701270E948B2A03FD0CC0A12CB12CA1
:1043F00065017B018C01E218F30804091509A2018B
:104400009101C4CF24E0A22EB12CC12CD12CF1CF2C
:1044100064E0A62EB12CC12CD12CB5CF0F931F93E5
:10442000CF93DF938C0160E173E2DC018C910E94F9
:104430000B30EC01F80180859185A285B385FE01E2
:10444000E15BFF4F80839183A283B383892B8A2B07
:104450008B2B59F4359711821082C45BDF4F188281
:10446000DF91CF911F910F910895F801848195817B
:10447000A681B781FE01ED5AFF4F80839183A2830D
:10448000B38367EC70E4D8011C968C910E940B30CA
:10449000FE01E65BFF4F918380833396D8015096EF
:1044A0008C9150978083319654968C918083C45B15
:1044B000DF4F86E08883DF91CF911F910F910895A0
:1044C0009F92AF92BF92CF92DF92EF92FF920F93A3
:1044D0001F93CF93DF93FC01908062E274E2892DF9
:1044E0000E940B30EC01F8940E948B2A9B01AC01D6
:1044F000EC85FD8590818E85892378948823B9F099
:10450000A12CB12C6501E12CF12C8701692DCE0184
:1045100043960E94BF38DF91CF911F910F91FF907A
:10452000EF90DF90CF90BF90AF909F90089584E080
:10453000A82EB12CC12CD12CE6CF0F931F93CF9373
:10454000DF938C0162E274E2FC0180810E940B30F7
:10455000EC016AE479E1F80184810E940B30C55BCB
:10456000DF4F99838883DF91CF911F910F91089539
:104570009F92AF92BF92CF92DF92EF92FF920F93F2
:104580001F93CF93DF93FC01908069E974E2892D3A
:104590000E940B30EC01F8940E948B2A9B01AC0125
:1045A000EA89FB8990818C89892378948823B9F0E2
:1045B000A12CB12C6501E12CF12C8701692DCE01D4
:1045C00048960E94BF38DF91CF911F910F91FF90C5
:1045D000EF90DF90CF90BF90AF909F90089584E0D0
:1045E000A82EB12CC12CD12CE6CF0F931F93CF93C3
:1045F000DF938C0169E974E2FC0180810E940B3039
:10460000EC016AE479E1F80184810E940B30C05B1F
:10461000DF4F99838883DF91CF911F910F91089588
:104620000F931F93CF93DF938C0147E550E060E138
:1046300073E2FC0180810E94DC2FEC0188EC90E2A7
:104640009B838A836BE97CE2F80184810E940B30B2
:104650009D878C87DF91CF911F910F9108950F93C4
:104660001F93CF93DF938C014BE450E06FE273E232
:10467000FC0180810E94DC2FEC018EE791E29B839C
:104680008A836BE97CE2F80184810E940B309D876C
:104690008C87DF91CF911F910F9108950F931F93F6
:1046A000CF93DF938C0160E173E2FC0180810E9473
:1046B0000B30EC010E94C6488E858E7F8E87F801F4
:1046C00084819581A681B7810097A105B105F1F09C
:1046D00088879987AA87BB87188A1F861A8A198AAA
:1046E0001B8AF8940E948B2A088519852A853B85A8
:1046F000DC01CB01800F911FA21FB31F8C839D8310
:10470000AE83BF83CE010E9418497894DF91CF9188
:104710001F910F9108950F931F93CF93DF938C01F7
:1047200062E274E2FC0180810E940B30EC010E9485
:10473000C648198AF80184819581A681B781888746
:104740009987AA87BB87892B8A2B8B2BD1F01C8A50
:104750001B8A1E8A1D8A1F8AF8940E948B2A08854C
:1047600019852A853B85DC01CB01800F911FA21F93
:10477000B31F8C839D83AE83BF83CE010E941849F3
:104780007894DF91CF911F910F9108950F931F930C
:10479000CF93DF93FC01C081D1811281038160E15D
:1047A00073E28C2F0E940B30FC01ED5AFF4F2381E6
:1047B0002F9322812F9321812F9320812F9337973D
:1047C000808182FB882780F91F928F930F931F931C
:1047D000DF93CF938BEB94E19F938F930E94624280
:1047E0008DB79EB70C960FB6F8949EBF0FBE8DBFC7
:1047F000DF91CF911F910F910895EF92FF920F9348
:104800001F93CF93DF93EC010E94102360E173E2CA
:1048100088810E940B308C017C0187E4E80EF11C3A
:1048200061E088850E945A2FF7016083718382833B
:1048300082E0F8018687DF91CF911F910F91FF9061
:10484000EF9008950F931F93CF93DF938C014DE466
:1048500050E062E274E2FC0180810E94DC2FEC01F6
:104860008AEF90E29B838A83198A6CE574E4F801ED
:1048700084810E940B30988B8F8760E0F8018085DF
:104880000E945A2F6C877D878E87DF91CF911F9171
:104890000F9108950F931F93CF93DF938C0169E9D4
:1048A00074E2FC0180810E940B30EC010E94C6483A
:1048B00019861E861F86188A198AF80184819581B7
:1048C000A681B7818A879B87AC87BD87892B8A2B76
:1048D0008B2B29F16D897E898F8940E00E94932F6F
:1048E000198E188E1B8E1A8E1C8EF8940E948B2A9D
:1048F0000A851B852C853D85DC01CB01800F911F2E
:10490000A21FB31F8C839D83AE83BF83CE010E9401
:1049100018497894DF91CF911F910F9108956D8977
:104920007E898F8941E0DF91CF911F910F910C9487
:10493000932F0F931F93CF93DF93EC0142E550E049
:1049400069E974E288810E94DC2F8C018BE391E29B
:10495000F801938382838C819FEF980F9430C8F481
:10496000F801808761E088850E945A2FF801628BE8
:10497000738B848B60E08C850E943429F801658BF1
:10498000768B878B41E0DF91CF911F910F910C9433
:10499000932F8EE20E94964B2F923F924F925F92FE
:1049A0006F927F928F929F92AF92BF92CF92DF923F
:1049B000EF92FF920F931F93CF93DF9300D01F923C
:1049C0001F92CDB7DEB73C016FE273E2FC0180813C
:1049D0000E940B304C018BE18B838E010C5F1F4FCB
:1049E00021E0AE014D5F5F4F61E0F4018485958564
:1049F0000E941D270E9494188C818F7031F0F40161
:104A0000858996890196968B858B80E78D830E9498
:104A10008B2A1B012C018E010F5F1F4F22E0AE017C
:104A20004B5F5F4F61E0F401848595850E941D27EF
:104A30000E9494180E948B2A29812F71A22EB12CDA
:104A4000BA2CAA242A81A22A0B2C000CCC08DD083F
:104A50007B018C01E218F30804091509A2019101F8
:104A6000F3016081C40143960E94BF380F900F90FC
:104A70000F900F900F90DF91CF911F910F91FF90AA
:104A8000EF90DF90CF90BF90AF909F908F907F90EE
:104A90006F905F904F903F902F9008952F923F928C
:104AA0004F925F926F927F928F929F92AF92BF923E
:104AB000CF92DF92EF92FF920F931F93CF93DF93EA
:104AC00000D01F921F92CDB7DEB73C0163EC7DE3AF
:104AD000FC0180810E940B304C018AE38B838E01A4
:104AE0000C5F1F4F21E0AE014D5F5F4F61E0F401AD
:104AF000848595850E941D270E9494188C8184FFCF
:104B000006C0F401858996890196968B858B82E78C
:104B10008D830E948B2A1B012C018E010F5F1F4F7A
:104B200022E0AE014B5F5F4F61E0F4018485958523
:104B30000E941D270E9494180E948B2A29812F71A0
:104B4000A22EB12CBA2CAA242A81A22A0B2C000C4A
:104B5000CC08DD087B018C01E218F3080409150973
:104B6000A2019101F3016081C40143960E94BF3804
:104B70000F900F900F900F900F90DF91CF911F919A
:104B80000F91FF90EF90DF90CF90BF90AF909F90EC
:104B90008F907F906F905F904F903F902F900895EF
:104BA0000F931F93CF93DF93EC01F8940E948B2A0D
:104BB000088519852A853B85DC01CB01800F911F73
:104BC000A21FB31F8C839D83AE83BF83CE010E943F
:104BD00018497894DF91CF911F910F9108950F9309
:104BE0001F93CF93DF938C016FE273E2FC0180810E
:104BF0000E940B30EC010E94C6481A8AF801848199
:104C00009581A681B7810097A105B10529F4DF91AF
:104C1000CF911F910F91089588879987AA87BB87A5
:104C20001C8A1B8A1E8A1D8A1F8A1F861E86198A55
:104C3000188ACE01DF91CF911F910F910C94D0254E
:104C40000F931F93CF93DF93FC01A189B2898D91BC
:104C50009C911197928B818B16968D919C911797B1
:104C6000C085D185228521113FC02FB7F894AC01B2
:104C70005527598348832FBF2091580230915902FC
:104C800011963C932E93B0935902A0935802A18998
:104C9000B289109759F5278530898217930741F01B
:104CA00083859485A585B6850097A105B10531F466
:104CB00080E0DF91CF911F910F910895448155813C
:104CC00066817781840F951FA61FB71F8483958304
:104CD000A683B78385EA96E29383828381E0DF919E
:104CE000CF911F910F9108958883C6CF12964D9151
:104CF0005D916D917C911597278530898217930777
:104D000041F083859485A585B6850097A105B105F9
:104D100051F4448355836683778381E0DF91CF919B
:104D20001F910F9108950481158126813781800F8D
:104D3000911FA21FB31F2B2F84179507A607270BC0
:104D400027FFE7CF80E20E94964B81E20E94964BBC
:104D5000BF92CF92DF92EF92FF920F931F93CF9368
:104D6000DF93EC016BE97CE288810E940B30BC8010
:104D700008851985FC01228120FD3BC0FC01D08102
:104D80000E948B2A6B017C01F0E8CF0EF8E3DF1E56
:104D9000F1E0EF1EF11CC701B6010E942D2FD09348
:104DA000BB0084E88093BC00C701B6010E94112FAC
:104DB000BB2079F0CB2DD4E8F80181918F0180934D
:104DC000BB00D093BC00C701B6010E94112FC15097
:104DD00099F784E98093BC0080E090E0DF91CF9167
:104DE0001F910F91FF90EF90DF90CF90BF900C94A8
:104DF0009418E080F180F7016485C7010E940C33AC
:104E00006C01892B79F4E801CB0DD11D08C0F801A4
:104E100061918F01C7010E94A732009741F4C0172A
:104E2000D107A9F7C7010E949032C601D7CF6C0104
:104E3000C7010E949032C601D1CF4F925F926F920C
:104E40007F928F929F92AF92BF92CF92DF92EF921A
:104E5000FF920F931F93CF93DF93462E542E652E10
:104E6000722E7801FC01228120FD7DC0FC01C080F2
:104E70000E948B2A4B015C01F0E88F0EF8E39F1E25
:104E8000F1E0AF1EB11CC501B4010E942D2FC092EC
:104E9000BB0084E88093BC00C501B4010E94112FBF
:104EA0000FEF040D4420A9F0C52DD62D10E00F5FA3
:104EB0001F4F0C0F1D1F94E8D92E89918093BB00C2
:104EC000D092BC00C501B4010E94112F0C171D0720
:104ED000A1F7C501B4010E942D2F8C2D8160809314
:104EE000BB0084E88093BC00C501B4010E94112F6F
:104EF000DFEFD70D772009F18701CD2F84ECD82E75
:104F0000CC2369F0D092BC00C501B4010E94112FDE
:104F10008091BB00F80181938F01C15099F7C701BF
:104F20008D0F911DEC0184E88093BC00C501B40194
:104F30000E94112F8091BB00888384E98093BC007C
:104F400080E090E0DF91CF911F910F91FF90EF9063
:104F5000DF90CF90BF90AF909F908F907F906F9099
:104F60005F904F900895C081D1816623E9F06C85F0
:104F7000CE010E940C336C01892B09F5052D162DED
:104F80004A94A42CB12CFFEFAF1ABF0AA00EB11E99
:104F9000F80161918F01CE010E94A7326C01892B2B
:104FA00071F4A016B106A1F76C856160CE010E9474
:104FB0000C336C01892B41F024E0C22ED12CCE01A0
:104FC0000E949032C601BECF8FEF870D7720B9F3D4
:104FD0005701A80EB11C69857A858B8541E00E9436
:104FE000442F08E010E06E817F81888541E00E94B7
:104FF000442F110FE985FA8590818B85892391E0F3
:1050000009F490E0192B688179818A8140E00E943F
:10501000A22F015041F7EA14FB0479F46E817F81DD
:10502000888541E00E94442F688179818A8140E02F
:105030000E94A22FF7011083C2CF6B817C818D81EA
:1050400040E00E94A22F6E817F81888541E00E940E
:10505000442F688179818A8140E00E94A22FF70164
:1050600011937F01B8CFAF92BF92CF92DF92EF92B0
:10507000FF920F931F93CF93DF93CDB7DEB77C01E1
:10508000ADB6BEB6FC01C0806BE97CE28C2D0E94FF
:105090000B30F701648140855185D4842DB73EB72C
:1050A0002D1931090FB6F8943EBF0FBE2DBFEDB7D5
:1050B000FEB731967F018F012D2D0E941D270E9482
:1050C0009418FF92EF921F92DF921F92CF928FED72
:1050D00094E19F938F930E9462422DB73EB7285F61
:1050E0003F4F0FB6F8943EBF0FBE2DBF0FB6F894DA
:1050F000BEBE0FBEADBEDF91CF911F910F91FF904D
:10510000EF90DF90CF90BF90AF900895B0990FC00F
:1051100080915A0290915B020196109205021092C2
:105120000402909307028093060281E0089581E0D3
:1051300086BB80915A0290915B02019690935B022C
:1051400080935A0220E030E8309305022093040255
:10515000909307028093060281E00895CF93FC01AB
:10516000C0816AE479E18C2F0E940B30FC018785B5
:105170008F9386858F9385858F9384858F9382A562
:10518000869581701F928F931F92CF9383EA94E14B
:105190009F938F930E9462428DB79EB70A960FB677
:1051A000F8949EBF0FBE8DBFCF910895FF920F93CD
:1051B0001F93CF93DF938C016AE479E1FC01808136
:1051C0000E940B30EC010E94C6488AA58C7FF82E05
:1051D0008AA71C861D861E861F861D8E1C8EF801C2
:1051E00084859585A685B785892B8A2B8B2B31F4F1
:1051F000DF91CF911F910F91FF90089567EC70E4BC
:1052000084810E940B309D8F8C8FF80180858BA745
:1052100084858CA780899189A289B3898C839D8399
:10522000AE83BF8380899189A289B389888F998F42
:10523000AA8FBB8F84899589A689B7898C8B9D8B12
:10524000AE8BBF8B808D8DA71EA686E699E19B83D2
:105250008A838F2D85608AA7CE01DF91CF911F9120
:105260000F91FF900C941849803678F5E82FE69559
:10527000E695E695F0E0EE0FFF1FE15CFA4EA59192
:10528000B491109711F1877021E030E0A90102C0BC
:10529000440F551F8A95E2F7CA013FB7F89412965A
:1052A0002C91129761110FC04095242312962C93D4
:1052B000129711962C911197282B11962C931197D8
:1052C0003FBFBD010895242BF1CF89E30E94964B87
:1052D0001F920F920FB60F9211240BB60F92EF92FE
:1052E000FF920F931F932F933F934F935F936F936F
:1052F0007F938F939F93AF93BF93CF93DF93EF935E
:10530000FF930DC07A0180918400909185008E19E1
:105310009F0997FD7CC07894B2999AC0F894C09187
:105320002202D0912302EA81FB81309709F0ACC0C0
:10533000EA8DFB8D2C8D20838E859F85019709F446
:10534000D2C09F878E8788859985AA85BB854C8129
:105350005D816E817F81480F591F6A1F7B1F4C83BF
:105360005D836E837F8320832CA526FF0EC00C8572
:105370001D85012E000C220B330B800F911FA21FE5
:10538000B31F88879987AA87BB87E881F981048141
:10539000158126813781872F401751076207830BBC
:1053A00087FDB0CF7801F0932302E0932202A09111
:1053B0002402B091250214960D911D912D913C91DE
:1053C0001797872F401751076207830B87FFFD014F
:1053D000DF010190F081E02D048115812681378164
:1053E000872F401751076207830B87FFF1CFF9839F
:1053F000E883CD93DC93D0932502C093240280915F
:105400008400909185008E199F0997FF84CF863A7A
:105410009F4F0CF07BC0F0928900E0928800FF91D2
:10542000EF91DF91CF91BF91AF919F918F917F913C
:105430006F915F914F913F912F911F910F91FF902D
:10544000EF900F900BBE0F900FBE0F901F9018950E
:10545000F89480918400909185009701281B390B66
:105460002038314C0CF44BC02091270227FD29C075
:105470009C012854344F30938B0020938A0024E001
:1054800026BB7C01F394C7CFCE0119954C815D8179
:105490006E817F81811179CFE881F981E480F58087
:1054A000F0932302E093220280912402909125023E
:1054B000C817D90709F027CFF0932502E0932402FB
:1054C00022CF20912602209327029C01205C304E9F
:1054D00030938B0020938A0024E026BB90938900B0
:1054E0008093880010CFCE010E944F3BEA8DFB8D48
:1054F0009C8D90834C815D816E817F81CBCF20918B
:1055000028022111B1CF87E30E94964B7894B2997B
:105510009FCFF894F8CE2FB7F894609184007091E3
:10552000850080915A0290915B02B09902C02FBF12
:1055300008952FBF7F3FE1F30196089578940E946C
:10554000AF492FEF260F6623C1F0FC018FEF9FEFCD
:1055500031918327082E8295807F8025092E982FF0
:1055600082958F700826869598278927880F880F3F
:10557000880F8025215060F708958FEF9FEF0895E1
:10558000CF93DF93FC0184819581A681B781448903
:10559000558966897789C58DD68D3881C42FC170AC
:1055A000278D232331E009F430E0C31761F04F5F0A
:1055B0005F4F6F4F7F4F448B558B668B778B808F00
:1055C000918FA28FB38F4089518962897389272F68
:1055D000481759076A072B0B27FF18C0248D216035
:1055E000248F4485558566857785840F951FA61F72
:1055F000B71F808B918BA28BB38B1092260281E018
:1056000080935C0284819581A681B7814085518514
:1056100062857385840F951FA61FB71F84839583AA
:10562000A683B78381E0DF91CF9108950F931F93F5
:10563000CF93DF938C0168E47BE2FC0180810E94C0
:105640000B30EC010E94C648F80184819581A68147
:10565000B7818C839D83AE83BF83408551856285EE
:105660007385488759876A877B8744855585668512
:1056700077854C875D876E877F87888B998BAA8B10
:10568000BB8BCE01DF91CF911F910F910C941849E4
:105690000F931F93CF93DF93EC0140E250E068E457
:1056A0007BE288810E94DC2F8C0168858C810E94BE
:1056B0005A2FF801658F768F878F80EC9AE293835B
:1056C0008283DF91CF911F910F9108954F925F9246
:1056D0006F927F92BF92CF92DF92EF92FF920F93E1
:1056E0001F93CF93DF93FC01B0806BE37CE28B2DA3
:1056F0000E940B30EC014D805E806F807884C984FD
:10570000DA84EB84FC840E948B2ADC01CB018419AF
:105710009509A609B7098C159D05AE05BF0568F466
:105720000E948B2ADC01CB0184199509A609B709CF
:105730008C159D05AE05BF0598F3CD84DE84688188
:1057400079818A81A0918400B09185000B811C81B0
:105750009E01215F3F4F7901C20ED31ECE14DF049C
:1057600009F457C0F70191917F0128E013C0F89424
:105770004091840050918500FB0180838083789460
:10578000FA01EA1BFB0BE017F107D8F4990FDA01D5
:10579000215021F397FFEBCFF89440918400509172
:1057A0008500FB0180837894FA01EA1BFB0BE0176C
:1057B000F10738F4990FF894FB0180837894DA01AB
:1057C000E7CF40E00E94932F0E948B2A6D837E8357
:1057D0008F83988780E01F928F931F92BF928DECEA
:1057E00094E19F938F930E9462420F900F900F90CD
:1057F0000F900F900F90DF91CF911F910F91FF901D
:10580000EF90DF90CF90BF907F906F905F904F9020
:1058100008950E948B2A6D837E838F83988781E011
:10582000DACF0F931F93CF93DF93EC016BE37CE20E
:1058300088810E940B300C811D812E813F8148851B
:105840006C857D8517FD14C050E0DA01A00FB11FF3
:10585000EC01ED85FE85EA17FB0750F0015F1F4F55
:10586000800F911FDF91CF911F910F910C944F4D9D
:1058700086E20E94964B6F927F928F92CF92DF9238
:10588000EF92FF92CF93DF93EC0160E08C810E9456
:1058900034293B01882EC884D984EA84FB84D7FC50
:1058A00024C0A601415F5F4F6BE37CE288810E94C8
:1058B000DC2FFC01608271828282D686C5868C854F
:1058C0009D859483838388899989AA89BB898187E7
:1058D0009287A387B487DF91CF91FF90EF90DF90FD
:1058E000CF908F907F906F90089587E20E94964BA3
:1058F000CF93DF93DC011C96ED91FC911D971E96D2
:105900009C911E971F96CD91DC91509751962C91AA
:1059100088E005C09083660F9083815049F067FF4F
:10592000F9CF288360959083660F90838150B9F7F3
:10593000DF91CF91089543E050E06BE97CE2FC01F8
:1059400080810C94DC2F8F929F92AF92BF92FF9236
:105950000F931F93CF93DF938C01FC0184858F7786
:10596000F82E6BE97CE280810E940B30EC01F8019B
:1059700084819581A681B781892B8A2B8B2BB1F5E8
:105980008091BC0082FF10C08F2D880F88838A8190
:1059900082608A83DF91CF911F910F91FF90BF901A
:1059A000AF909F908F900895F80180849184A28495
:1059B000B38461E089E10E94342961E088E10E94BA
:1059C00034291092B900F0E88F16FAE19F06F6E04C
:1059D000AF06B10438F488E48093B80084E0809383
:1059E000BC00D2CF8CE08093B800F8CF8EE30E9449
:1059F000964BCF92DF92FF920F931F93CF93DF933B
:105A0000EC016CE574E48C810E940B306C01F8842D
:105A10000F2D10E0A8014D5F5F4F69EF7CE2888198
:105A20000E94DC2FFC01D182C082F2826C857D85D0
:105A3000A8010396DF91CF911F910F91FF90DF9006
:105A4000CF900C944F4D8BE10E94964B2F923F923A
:105A50004F925F926F927F928F929F92AF92BF927E
:105A6000CF92DF92EF92FF920F931F93CF93DF932A
:105A700000D000D0CDB7DEB79B838A83C62E142F0B
:105A80007901DC011596BC91B9838B2F867009F4DE
:105A900090C0B1FD49C0AA81BB819C9111968C91A7
:105AA0009CBD8DBDB981B170BC83E981E0FD6CC145
:105AB000CC2009F45BC18FEF810F112351F0F70166
:105AC00090819EBD0DB407FEFDCF9EB59193815090
:105AD000B8F72C81222309F46CC00981069506953C
